{
	"_format": "hh-sol-artifact-1",
	"contractName": "GooddoerFactory",
	"sourceName": "contracts/GooddoerFactory.sol",
	"abi": [
		{
			"inputs": [
				{
					"internalType": "address",
					"name": "admin_",
					"type": "address"
				},
				{
					"internalType": "address",
					"name": "operator_",
					"type": "address"
				}
			],
			"stateMutability": "nonpayable",
			"type": "constructor"
		},
		{
			"anonymous": false,
			"inputs": [
				{
					"indexed": true,
					"internalType": "address",
					"name": "fundraiser",
					"type": "address"
				},
				{
					"indexed": false,
					"internalType": "uint256",
					"name": "fundraisingAmount",
					"type": "uint256"
				},
				{
					"indexed": false,
					"internalType": "address",
					"name": "beneficiary",
					"type": "address"
				},
				{
					"indexed": false,
					"internalType": "bytes32",
					"name": "documentName",
					"type": "bytes32"
				},
				{
					"indexed": false,
					"internalType": "string",
					"name": "documentUri",
					"type": "string"
				},
				{
					"indexed": false,
					"internalType": "bytes32",
					"name": "documentHash",
					"type": "bytes32"
				}
			],
			"name": "FundraiserCreated",
			"type": "event"
		},
		{
			"anonymous": false,
			"inputs": [
				{
					"indexed": true,
					"internalType": "bytes32",
					"name": "role",
					"type": "bytes32"
				},
				{
					"indexed": true,
					"internalType": "bytes32",
					"name": "previousAdminRole",
					"type": "bytes32"
				},
				{
					"indexed": true,
					"internalType": "bytes32",
					"name": "newAdminRole",
					"type": "bytes32"
				}
			],
			"name": "RoleAdminChanged",
			"type": "event"
		},
		{
			"anonymous": false,
			"inputs": [
				{
					"indexed": true,
					"internalType": "bytes32",
					"name": "role",
					"type": "bytes32"
				},
				{
					"indexed": true,
					"internalType": "address",
					"name": "account",
					"type": "address"
				},
				{
					"indexed": true,
					"internalType": "address",
					"name": "sender",
					"type": "address"
				}
			],
			"name": "RoleGranted",
			"type": "event"
		},
		{
			"anonymous": false,
			"inputs": [
				{
					"indexed": true,
					"internalType": "bytes32",
					"name": "role",
					"type": "bytes32"
				},
				{
					"indexed": true,
					"internalType": "address",
					"name": "account",
					"type": "address"
				},
				{
					"indexed": true,
					"internalType": "address",
					"name": "sender",
					"type": "address"
				}
			],
			"name": "RoleRevoked",
			"type": "event"
		},
		{
			"inputs": [],
			"name": "DEFAULT_ADMIN_ROLE",
			"outputs": [
				{
					"internalType": "bytes32",
					"name": "",
					"type": "bytes32"
				}
			],
			"stateMutability": "view",
			"type": "function"
		},
		{
			"inputs": [],
			"name": "OPERATOR_ROLE",
			"outputs": [
				{
					"internalType": "bytes32",
					"name": "",
					"type": "bytes32"
				}
			],
			"stateMutability": "view",
			"type": "function"
		},
		{
			"inputs": [
				{
					"internalType": "uint256",
					"name": "fundraisingAmount",
					"type": "uint256"
				},
				{
					"internalType": "address",
					"name": "beneficiary",
					"type": "address"
				},
				{
					"components": [
						{
							"internalType": "bytes32",
							"name": "name",
							"type": "bytes32"
						},
						{
							"internalType": "string",
							"name": "uri",
							"type": "string"
						},
						{
							"internalType": "bytes32",
							"name": "hash",
							"type": "bytes32"
						}
					],
					"internalType": "struct IFundraiserStruct.DocumentParams",
					"name": "document",
					"type": "tuple"
				}
			],
			"name": "computeAddress",
			"outputs": [
				{
					"internalType": "address",
					"name": "",
					"type": "address"
				}
			],
			"stateMutability": "view",
			"type": "function"
		},
		{
			"inputs": [
				{
					"internalType": "uint256",
					"name": "fundraisingAmount",
					"type": "uint256"
				},
				{
					"internalType": "address",
					"name": "beneficiary",
					"type": "address"
				},
				{
					"components": [
						{
							"internalType": "bytes32",
							"name": "name",
							"type": "bytes32"
						},
						{
							"internalType": "string",
							"name": "uri",
							"type": "string"
						},
						{
							"internalType": "bytes32",
							"name": "hash",
							"type": "bytes32"
						}
					],
					"internalType": "struct IFundraiserStruct.DocumentParams",
					"name": "document",
					"type": "tuple"
				}
			],
			"name": "createFundraiser",
			"outputs": [
				{
					"internalType": "bool",
					"name": "",
					"type": "bool"
				}
			],
			"stateMutability": "nonpayable",
			"type": "function"
		},
		{
			"inputs": [
				{
					"internalType": "uint256",
					"name": "fundraiserId",
					"type": "uint256"
				}
			],
			"name": "fundraiserById",
			"outputs": [
				{
					"internalType": "address",
					"name": "",
					"type": "address"
				}
			],
			"stateMutability": "view",
			"type": "function"
		},
		{
			"inputs": [
				{
					"internalType": "uint256",
					"name": "offset",
					"type": "uint256"
				},
				{
					"internalType": "uint256",
					"name": "limit",
					"type": "uint256"
				}
			],
			"name": "fundraisers",
			"outputs": [
				{
					"internalType": "address[]",
					"name": "fundraisersAddresses",
					"type": "address[]"
				}
			],
			"stateMutability": "view",
			"type": "function"
		},
		{
			"inputs": [],
			"name": "fundraisersCount",
			"outputs": [
				{
					"internalType": "uint256",
					"name": "",
					"type": "uint256"
				}
			],
			"stateMutability": "view",
			"type": "function"
		},
		{
			"inputs": [
				{
					"internalType": "bytes32",
					"name": "role",
					"type": "bytes32"
				}
			],
			"name": "getRoleAdmin",
			"outputs": [
				{
					"internalType": "bytes32",
					"name": "",
					"type": "bytes32"
				}
			],
			"stateMutability": "view",
			"type": "function"
		},
		{
			"inputs": [
				{
					"internalType": "bytes32",
					"name": "role",
					"type": "bytes32"
				},
				{
					"internalType": "uint256",
					"name": "index",
					"type": "uint256"
				}
			],
			"name": "getRoleMember",
			"outputs": [
				{
					"internalType": "address",
					"name": "",
					"type": "address"
				}
			],
			"stateMutability": "view",
			"type": "function"
		},
		{
			"inputs": [
				{
					"internalType": "bytes32",
					"name": "role",
					"type": "bytes32"
				}
			],
			"name": "getRoleMemberCount",
			"outputs": [
				{
					"internalType": "uint256",
					"name": "",
					"type": "uint256"
				}
			],
			"stateMutability": "view",
			"type": "function"
		},
		{
			"inputs": [
				{
					"internalType": "bytes32",
					"name": "role",
					"type": "bytes32"
				},
				{
					"internalType": "address",
					"name": "account",
					"type": "address"
				}
			],
			"name": "grantRole",
			"outputs": [],
			"stateMutability": "nonpayable",
			"type": "function"
		},
		{
			"inputs": [
				{
					"internalType": "bytes32",
					"name": "role",
					"type": "bytes32"
				},
				{
					"internalType": "address",
					"name": "account",
					"type": "address"
				}
			],
			"name": "hasRole",
			"outputs": [
				{
					"internalType": "bool",
					"name": "",
					"type": "bool"
				}
			],
			"stateMutability": "view",
			"type": "function"
		},
		{
			"inputs": [
				{
					"internalType": "address",
					"name": "fundraiserAddress",
					"type": "address"
				}
			],
			"name": "isFundraiserExist",
			"outputs": [
				{
					"internalType": "bool",
					"name": "",
					"type": "bool"
				}
			],
			"stateMutability": "view",
			"type": "function"
		},
		{
			"inputs": [
				{
					"internalType": "bytes32",
					"name": "role",
					"type": "bytes32"
				},
				{
					"internalType": "address",
					"name": "account",
					"type": "address"
				}
			],
			"name": "renounceRole",
			"outputs": [],
			"stateMutability": "nonpayable",
			"type": "function"
		},
		{
			"inputs": [
				{
					"internalType": "bytes32",
					"name": "role",
					"type": "bytes32"
				},
				{
					"internalType": "address",
					"name": "account",
					"type": "address"
				}
			],
			"name": "revokeRole",
			"outputs": [],
			"stateMutability": "nonpayable",
			"type": "function"
		},
		{
			"inputs": [
				{
					"internalType": "bytes4",
					"name": "interfaceId",
					"type": "bytes4"
				}
			],
			"name": "supportsInterface",
			"outputs": [
				{
					"internalType": "bool",
					"name": "",
					"type": "bool"
				}
			],
			"stateMutability": "view",
			"type": "function"
		}
	],
	"bytecode": "0x608060405234801562000010575f80fd5b5060405162002ed338038062002ed383398101604081905262000033916200029b565b6001600160a01b0382166200009e5760405162461bcd60e51b815260206004820152602660248201527f476f6f64646f6572466163746f72793a2041646d696e206973207a65726f206160448201526564647265737360d01b60648201526084015b60405180910390fd5b6001600160a01b038116620001085760405162461bcd60e51b815260206004820152602960248201527f476f6f64646f6572466163746f72793a204f70657261746f72206973207a65726044820152686f206164647265737360b81b606482015260840162000095565b620001145f8362000148565b620001407f97667070c54ef182b0f5858b034beac1b6f3089aa2d3188bb1e8929f4fa9b9298262000148565b5050620002d1565b62000154828262000172565b5f8281526001602052604090206200016d908262000211565b505050565b5f828152602081815260408083206001600160a01b038516845290915290205460ff166200020d575f828152602081815260408083206001600160a01b03851684529091529020805460ff19166001179055620001cc3390565b6001600160a01b0316816001600160a01b0316837f2f8788117e7eff1d82e926ec794901d17c78024a50270940304540a733656f0d60405160405180910390a45b5050565b5f62000227836001600160a01b03841662000230565b90505b92915050565b5f8181526001830160205260408120546200027757508154600181810184555f8481526020808220909301849055845484825282860190935260409020919091556200022a565b505f6200022a565b80516001600160a01b038116811462000296575f80fd5b919050565b5f8060408385031215620002ad575f80fd5b620002b8836200027f565b9150620002c8602084016200027f565b90509250929050565b612bf480620002df5f395ff3fe608060405234801562000010575f80fd5b506004361062000110575f3560e01c8063755f4df2116200009f578063a217fddf116200006b578063a217fddf1462000277578063ca15c873146200027f578063d547741f1462000296578063f5b541a614620002ad575f80fd5b8063755f4df214620002285780639010d07c146200023f57806391d1485414620002565780639d3b4355146200026d575f80fd5b806336568abe11620000df57806336568abe14620001bd5780634122af4f14620001d45780634598775e14620001eb578063704914f81462000202575f80fd5b806301ffc9a71462000114578063248a9ca314620001405780632d12121214620001745780632f2ff15d14620001a4575b5f80fd5b6200012b6200012536600462000f73565b620002d5565b60405190151581526020015b60405180910390f35b620001656200015136600462000f9c565b5f9081526020819052604090206001015490565b60405190815260200162000137565b6200018b6200018536600462000fd0565b62000302565b6040516001600160a01b03909116815260200162000137565b620001bb620001b53660046200102e565b6200041a565b005b620001bb620001ce3660046200102e565b62000447565b6200012b620001e53660046200105b565b620004cd565b6200018b620001fc36600462000f9c565b620004db565b620002196200021336600462001077565b62000554565b60405162000137919062001098565b6200012b6200023936600462000fd0565b62000662565b6200018b6200025036600462001077565b62000952565b6200012b620002673660046200102e565b62000972565b620001656200099a565b620001655f81565b620001656200029036600462000f9c565b620009ac565b620001bb620002a73660046200102e565b620009c4565b620001657f97667070c54ef182b0f5858b034beac1b6f3089aa2d3188bb1e8929f4fa9b92981565b5f6001600160e01b03198216635a05180f60e01b1480620002fc5750620002fc82620009ec565b92915050565b5f8060405180602001620003169062000f65565b601f1982820381018352601f9091011660408190526200033f908790879087906020016200110e565b60408051601f19818403018152908290526200035f9291602001620011c5565b60408051601f1981840301815291905290505f85858535620003856020880188620011f7565b8860400135604051602001620003a19695949392919062001244565b60408051601f1981840301815282825280516020918201208551958201959095206001600160f81b0319828501523060601b6bffffffffffffffffffffffff1916602185015260358401959095526055808401959095528151808403909501855260759092019052825192019190912095945050505050565b5f82815260208190526040902060010154620004368162000a22565b62000442838362000a31565b505050565b6001600160a01b0381163314620004bd5760405162461bcd60e51b815260206004820152602f60248201527f416363657373436f6e74726f6c3a2063616e206f6e6c792072656e6f756e636560448201526e103937b632b9903337b91039b2b63360891b60648201526084015b60405180910390fd5b620004c9828262000a56565b5050565b5f620002fc60028362000a7b565b5f620004e8600262000a9d565b8210620005475760405162461bcd60e51b815260206004820152602660248201527f476f6f64646f6572466163746f72793a20496e76616c69642066756e647261696044820152651cd95c881a5960d21b6064820152608401620004b4565b620002fc60028362000aa7565b60605f62000563600262000a9d565b905080841062000583575050604080515f815260208101909152620002fc565b5f620005908486620012a7565b9050808210156200059e5750805b620005aa8582620012bd565b67ffffffffffffffff811115620005c557620005c56200127f565b604051908082528060200260200182016040528015620005ef578160200160208202803683370190505b5092505f5b83518110156200065957620006176200060e8288620012a7565b60029062000aa7565b8482815181106200062c576200062c620012d3565b6001600160a01b0390921660209283029190910190910152806200065081620012e7565b915050620005f4565b50505092915050565b5f835f03620006c95760405162461bcd60e51b815260206004820152602c60248201527f476f6f64646f6572466163746f72793a2046756e6472616973696e6720616d6f60448201526b756e74206c7465207a65726f60a01b6064820152608401620004b4565b6001600160a01b038316620007365760405162461bcd60e51b815260206004820152602c60248201527f476f6f64646f6572466163746f72793a2042656e65666963696172792069732060448201526b7a65726f206164647265737360a01b6064820152608401620004b4565b81356200079b5760405162461bcd60e51b815260206004820152602c60248201527f476f6f64646f6572466163746f72793a20446f63756d656e74206e616d65206960448201526b73207a65726f20627974657360a01b6064820152608401620004b4565b5f620007ab6020840184620011f7565b9050116200080b5760405162461bcd60e51b815260206004820152602660248201527f476f6f64646f6572466163746f72793a20446f63756d656e742075726920697360448201526520656d70747960d01b6064820152608401620004b4565b5f604051806020016200081e9062000f65565b601f1982820381018352601f90910116604081905262000847908790879087906020016200110e565b60408051601f1981840301815290829052620008679291602001620011c5565b60408051601f1981840301815291905290505f858585356200088d6020880188620011f7565b8860400135604051602001620008a99695949392919062001244565b6040516020818303038152906040528051906020012090505f818351602085015ff59050803b620008d8575f80fd5b620008e560028262000ab4565b506001600160a01b0381167fe8333866aa1ed2bfa2e686cd62d1ccfffd5031430afe9ace15197848d2a980f9888888356200092460208b018b620011f7565b8b604001356040516200093d9695949392919062001302565b60405180910390a25060019695505050505050565b5f8281526001602052604081206200096b908362000aa7565b9392505050565b5f918252602082815260408084206001600160a01b0393909316845291905290205460ff1690565b5f620009a7600262000a9d565b905090565b5f818152600160205260408120620002fc9062000a9d565b5f82815260208190526040902060010154620009e08162000a22565b62000442838362000a56565b5f6001600160e01b03198216637965db0b60e01b1480620002fc57506301ffc9a760e01b6001600160e01b0319831614620002fc565b62000a2e813362000aca565b50565b62000a3d828262000b2e565b5f82815260016020526040902062000442908262000ab4565b62000a62828262000bb5565b5f82815260016020526040902062000442908262000c1c565b6001600160a01b0381165f90815260018301602052604081205415156200096b565b5f620002fc825490565b5f6200096b838362000c32565b5f6200096b836001600160a01b03841662000c5b565b62000ad6828262000972565b620004c95762000ae68162000caa565b62000af383602062000cbd565b60405160200162000b0692919062001344565b60408051601f198184030181529082905262461bcd60e51b8252620004b491600401620013bc565b62000b3a828262000972565b620004c9575f828152602081815260408083206001600160a01b03851684529091529020805460ff1916600117905562000b713390565b6001600160a01b0316816001600160a01b0316837f2f8788117e7eff1d82e926ec794901d17c78024a50270940304540a733656f0d60405160405180910390a45050565b62000bc1828262000972565b15620004c9575f828152602081815260408083206001600160a01b0385168085529252808320805460ff1916905551339285917ff6391f5c32d9c69d2a47ea670b442974b53935d1edc7fd64eb21e047a839171b9190a45050565b5f6200096b836001600160a01b03841662000e71565b5f825f01828154811062000c4a5762000c4a620012d3565b905f5260205f200154905092915050565b5f81815260018301602052604081205462000ca257508154600181810184555f848152602080822090930184905584548482528286019093526040902091909155620002fc565b505f620002fc565b6060620002fc6001600160a01b03831660145b60605f62000ccd836002620013f0565b62000cda906002620012a7565b67ffffffffffffffff81111562000cf55762000cf56200127f565b6040519080825280601f01601f19166020018201604052801562000d20576020820181803683370190505b509050600360fc1b815f8151811062000d3d5762000d3d620012d3565b60200101906001600160f81b03191690815f1a905350600f60fb1b8160018151811062000d6e5762000d6e620012d3565b60200101906001600160f81b03191690815f1a9053505f62000d92846002620013f0565b62000d9f906001620012a7565b90505b600181111562000e20576f181899199a1a9b1b9c1cb0b131b232b360811b85600f166010811062000dd75762000dd7620012d3565b1a60f81b82828151811062000df05762000df0620012d3565b60200101906001600160f81b03191690815f1a90535060049490941c9362000e18816200140a565b905062000da2565b5083156200096b5760405162461bcd60e51b815260206004820181905260248201527f537472696e67733a20686578206c656e67746820696e73756666696369656e746044820152606401620004b4565b5f818152600183016020526040812054801562000f5b575f62000e96600183620012bd565b85549091505f9062000eab90600190620012bd565b905081811462000f11575f865f01828154811062000ecd5762000ecd620012d3565b905f5260205f200154905080875f01848154811062000ef05762000ef0620012d3565b5f918252602080832090910192909255918252600188019052604090208390555b855486908062000f255762000f2562001422565b600190038181905f5260205f20015f90559055856001015f8681526020019081526020015f205f905560019350505050620002fc565b5f915050620002fc565b611788806200143783390190565b5f6020828403121562000f84575f80fd5b81356001600160e01b0319811681146200096b575f80fd5b5f6020828403121562000fad575f80fd5b5035919050565b80356001600160a01b038116811462000fcb575f80fd5b919050565b5f805f6060848603121562000fe3575f80fd5b8335925062000ff56020850162000fb4565b9150604084013567ffffffffffffffff81111562001011575f80fd5b84016060818703121562001023575f80fd5b809150509250925092565b5f806040838503121562001040575f80fd5b82359150620010526020840162000fb4565b90509250929050565b5f602082840312156200106c575f80fd5b6200096b8262000fb4565b5f806040838503121562001089575f80fd5b50508035926020909101359150565b602080825282518282018190525f9190848201906040850190845b81811015620010da5783516001600160a01b031683529284019291840191600101620010b3565b50909695505050505050565b81835281816020850137505f828201602090810191909152601f909101601f19169091010190565b83815260018060a01b038316602082015260606040820152813560608201525f6020830135601e1984360301811262001145575f80fd5b830160208101903567ffffffffffffffff81111562001162575f80fd5b80360382131562001171575f80fd5b606060808501526200118860c085018284620010e6565b915050604084013560a084015280915050949350505050565b5f5b83811015620011bd578181015183820152602001620011a3565b50505f910152565b5f8351620011d8818460208801620011a1565b835190830190620011ee818360208801620011a1565b01949350505050565b5f808335601e198436030181126200120d575f80fd5b83018035915067ffffffffffffffff82111562001228575f80fd5b6020019150368190038213156200123d575f80fd5b9250929050565b8681526bffffffffffffffffffffffff198660601b166020820152846034820152828460548301376054920191820152607401949350505050565b634e487b7160e01b5f52604160045260245ffd5b634e487b7160e01b5f52601160045260245ffd5b80820180821115620002fc57620002fc62001293565b81810381811115620002fc57620002fc62001293565b634e487b7160e01b5f52603260045260245ffd5b5f60018201620012fb57620012fb62001293565b5060010190565b86815260018060a01b038616602082015284604082015260a060608201525f6200133160a083018587620010e6565b9050826080830152979650505050505050565b7f416363657373436f6e74726f6c3a206163636f756e742000000000000000000081525f83516200137d816017850160208801620011a1565b7001034b99036b4b9b9b4b733903937b6329607d1b6017918401918201528351620013b0816028840160208801620011a1565b01602801949350505050565b602081525f8251806020840152620013dc816040850160208701620011a1565b601f01601f19169190910160400192915050565b8082028115828204841417620002fc57620002fc62001293565b5f816200141b576200141b62001293565b505f190190565b634e487b7160e01b5f52603160045260245ffdfe60a060405234801562000010575f80fd5b50604051620017883803806200178883398101604081905262000033916200035f565b33608052620000637fa49807205ce4d355092ef5a8a18f56e8913cf4a201fbe287825b095693c2177583620000a5565b6004839055600580546001600160a01b0319166001600160a01b0384161790558051602082015160408301516200009c9291906200012f565b505050620005f0565b620000b182826200023a565b6200012b575f8281526003602090815260408083206001600160a01b03851684529091529020805460ff19166001179055620000ea3390565b6001600160a01b0316816001600160a01b0316837f2f8788117e7eff1d82e926ec794901d17c78024a50270940304540a733656f0d60405160405180910390a45b5050565b826200015b5760405162461bcd60e51b8152602060048201525f60248201526044015b60405180910390fd5b5f825111620001865760405162461bcd60e51b8152602060048201525f602482015260440162000152565b5f838152602081905260408120600101549003620001ad57620001ab60018262000266565b505b604080516060810182528281524260208083019182528284018681525f88815291829052939020825181559051600182015591519091906002820190620001f59082620004ec565b50905050827fb4c22d60cd550a815744f04e3ff5278bf19684565ee00e2b084041b6024bd6f683836040516200022d929190620005b4565b60405180910390a2505050565b5f8281526003602090815260408083206001600160a01b038516845290915290205460ff165b92915050565b5f6200027383836200027a565b9392505050565b5f818152600183016020526040812054620002c157508154600181810184555f84815260208082209093018490558454848252828601909352604090209190915562000260565b505f62000260565b634e487b7160e01b5f52604160045260245ffd5b604051606081016001600160401b0381118282101715620003025762000302620002c9565b60405290565b604051601f8201601f191681016001600160401b0381118282101715620003335762000333620002c9565b604052919050565b5f5b83811015620003575781810151838201526020016200033d565b50505f910152565b5f805f6060848603121562000372575f80fd5b8351602080860151919450906001600160a01b038116811462000393575f80fd5b60408601519093506001600160401b0380821115620003b0575f80fd5b9086019060608289031215620003c4575f80fd5b620003ce620002dd565b825181528383015182811115620003e3575f80fd5b8301601f81018a13620003f4575f80fd5b805183811115620004095762000409620002c9565b6200041d601f8201601f1916870162000308565b93508084528a8682840101111562000433575f80fd5b62000444818786018885016200033b565b5050928301526040908101519082015292959194509192509050565b600181811c908216806200047557607f821691505b6020821081036200049457634e487b7160e01b5f52602260045260245ffd5b50919050565b601f821115620004e7575f81815260208120601f850160051c81016020861015620004c25750805b601f850160051c820191505b81811015620004e357828155600101620004ce565b5050505b505050565b81516001600160401b03811115620005085762000508620002c9565b620005208162000519845462000460565b846200049a565b602080601f83116001811462000556575f84156200053e5750858301515b5f19600386901b1c1916600185901b178555620004e3565b5f85815260208120601f198616915b82811015620005865788860151825594840194600190910190840162000565565b5085821015620005a457878501515f19600388901b60f8161c191681555b5050505050600190811b01905550565b604081525f8351806040840152620005d48160608501602088016200033b565b602083019390935250601f91909101601f191601606001919050565b60805161117f620006095f395f610244015261117f5ff3fe608060405234801561000f575f80fd5b50600436106100f0575f3560e01c806375b238fc11610093578063b10d6b4111610063578063b10d6b411461020a578063c35018481461022c578063c45a01551461023f578063d547741f14610266575f80fd5b806375b238fc146101b457806391d14854146101db5780639fa5f50b146101ee578063a217fddf14610203575f80fd5b80632f2ff15d116100ce5780632f2ff15d1461015f57806336568abe1461017457806338af3eed1461018757806374dcba56146101ac575f80fd5b8063010648ca146100f457806301ffc9a71461011c578063248a9ca31461012f575b5f80fd5b610107610102366004610cf1565b610279565b60405190151581526020015b60405180910390f35b61010761012a366004610dae565b6102ba565b61015161013d366004610dd5565b5f9081526003602052604090206001015490565b604051908152602001610113565b61017261016d366004610dec565b6102f0565b005b610172610182366004610dec565b610319565b6005546001600160a01b03165b6040516001600160a01b039091168152602001610113565b600454610151565b6101517fa49807205ce4d355092ef5a8a18f56e8913cf4a201fbe287825b095693c2177581565b6101076101e9366004610dec565b61039c565b6101f66103c6565b6040516101139190610e25565b6101515f81565b61021d610218366004610dd5565b610414565b60405161011393929190610eb5565b61010761023a366004610dd5565b610533565b6101947f000000000000000000000000000000000000000000000000000000000000000081565b610172610274366004610dec565b610572565b5f7fa49807205ce4d355092ef5a8a18f56e8913cf4a201fbe287825b095693c217756102a481610596565b6102af8585856105a3565b506001949350505050565b5f6001600160e01b03198216637965db0b60e01b14806102ea57506301ffc9a760e01b6001600160e01b03198316145b92915050565b5f8281526003602052604090206001015461030a81610596565b610314838361069f565b505050565b6001600160a01b038116331461038e5760405162461bcd60e51b815260206004820152602f60248201527f416363657373436f6e74726f6c3a2063616e206f6e6c792072656e6f756e636560448201526e103937b632b9903337b91039b2b63360891b60648201526084015b60405180910390fd5b6103988282610724565b5050565b5f9182526003602090815260408084206001600160a01b0393909316845291905290205460ff1690565b60605f6103d3600161078a565b90505f5b8181101561040f576103ea600182610793565b8382815181106103fc576103fc610ed9565b60209081029190910101526001016103d7565b505090565b5f818152602081905260408120600201805460609291829161043590610eed565b90505f0361045e5760405162461bcd60e51b8152602060048201525f6024820152604401610385565b5f84815260208181526040808320815160608101835281548152600182015493810193909352600281018054919284019161049890610eed565b80601f01602080910402602001604051908101604052809291908181526020018280546104c490610eed565b801561050f5780601f106104e65761010080835404028352916020019161050f565b820191905f5260205f20905b8154815290600101906020018083116104f257829003601f168201915b50505091909252505050604081015181516020909201519097919650945092505050565b5f7fa49807205ce4d355092ef5a8a18f56e8913cf4a201fbe287825b095693c2177561055e81610596565b610567836107a5565b600191505b50919050565b5f8281526003602052604090206001015461058c81610596565b6103148383610724565b6105a08133610927565b50565b826105c95760405162461bcd60e51b8152602060048201525f6024820152604401610385565b5f8251116105f25760405162461bcd60e51b8152602060048201525f6024820152604401610385565b5f83815260208190526040812060010154900361061657610614600182610980565b505b604080516060810182528281524260208083019182528284018681525f8881529182905293902082518155905160018201559151909190600282019061065c9082610f6c565b50905050827fb4c22d60cd550a815744f04e3ff5278bf19684565ee00e2b084041b6024bd6f68383604051610692929190611028565b60405180910390a2505050565b6106a9828261039c565b610398575f8281526003602090815260408083206001600160a01b03851684529091529020805460ff191660011790556106e03390565b6001600160a01b0316816001600160a01b0316837f2f8788117e7eff1d82e926ec794901d17c78024a50270940304540a733656f0d60405160405180910390a45050565b61072e828261039c565b15610398575f8281526003602090815260408083206001600160a01b0385168085529252808320805460ff1916905551339285917ff6391f5c32d9c69d2a47ea670b442974b53935d1edc7fd64eb21e047a839171b9190a45050565b5f6102ea825490565b5f61079e838361098b565b9392505050565b5f8181526020818152604080832081516060810183528154815260018201549381019390935260028101805491928401916107df90610eed565b80601f016020809104026020016040519081016040528092919081815260200182805461080b90610eed565b80156108565780601f1061082d57610100808354040283529160200191610856565b820191905f5260205f20905b81548152906001019060200180831161083957829003601f168201915b505050505081525050905080602001515f036108ac5760405162461bcd60e51b8152602060048201526015602482015274111bd8dd5b595b9d08191bd95cdb9d08195e1a5cdd605a1b6044820152606401610385565b80516108ba906001906109b1565b505f82815260208190526040812081815560018101829055906108e06002830182610c93565b5050817f3d9bba27d3e360d8c80645beed7e991454a8271bf6f269a24f7782be0f0d06548260400151835f015160405161091b929190611028565b60405180910390a25050565b610931828261039c565b6103985761093e816109bc565b6109498360206109ce565b60405160200161095a929190611049565b60408051601f198184030181529082905262461bcd60e51b8252610385916004016110bd565b5f61079e8383610b64565b5f825f0182815481106109a0576109a0610ed9565b905f5260205f200154905092915050565b5f61079e8383610bb0565b60606102ea6001600160a01b03831660145b60605f6109dc8360026110e3565b6109e79060026110fa565b67ffffffffffffffff8111156109ff576109ff610cdd565b6040519080825280601f01601f191660200182016040528015610a29576020820181803683370190505b509050600360fc1b815f81518110610a4357610a43610ed9565b60200101906001600160f81b03191690815f1a905350600f60fb1b81600181518110610a7157610a71610ed9565b60200101906001600160f81b03191690815f1a9053505f610a938460026110e3565b610a9e9060016110fa565b90505b6001811115610b15576f181899199a1a9b1b9c1cb0b131b232b360811b85600f1660108110610ad257610ad2610ed9565b1a60f81b828281518110610ae857610ae8610ed9565b60200101906001600160f81b03191690815f1a90535060049490941c93610b0e8161110d565b9050610aa1565b50831561079e5760405162461bcd60e51b815260206004820181905260248201527f537472696e67733a20686578206c656e67746820696e73756666696369656e746044820152606401610385565b5f818152600183016020526040812054610ba957508154600181810184555f8481526020808220909301849055845484825282860190935260409020919091556102ea565b505f6102ea565b5f8181526001830160205260408120548015610c8a575f610bd2600183611122565b85549091505f90610be590600190611122565b9050818114610c44575f865f018281548110610c0357610c03610ed9565b905f5260205f200154905080875f018481548110610c2357610c23610ed9565b5f918252602080832090910192909255918252600188019052604090208390555b8554869080610c5557610c55611135565b600190038181905f5260205f20015f90559055856001015f8681526020019081526020015f205f9055600193505050506102ea565b5f9150506102ea565b508054610c9f90610eed565b5f825580601f10610cae575050565b601f0160209004905f5260205f20908101906105a091905b80821115610cd9575f8155600101610cc6565b5090565b634e487b7160e01b5f52604160045260245ffd5b5f805f60608486031215610d03575f80fd5b83359250602084013567ffffffffffffffff80821115610d21575f80fd5b818601915086601f830112610d34575f80fd5b813581811115610d4657610d46610cdd565b604051601f8201601f19908116603f01168101908382118183101715610d6e57610d6e610cdd565b81604052828152896020848701011115610d86575f80fd5b826020860160208301375f602084830101528096505050505050604084013590509250925092565b5f60208284031215610dbe575f80fd5b81356001600160e01b03198116811461079e575f80fd5b5f60208284031215610de5575f80fd5b5035919050565b5f8060408385031215610dfd575f80fd5b8235915060208301356001600160a01b0381168114610e1a575f80fd5b809150509250929050565b602080825282518282018190525f9190848201906040850190845b81811015610e5c57835183529284019291840191600101610e40565b50909695505050505050565b5f5b83811015610e82578181015183820152602001610e6a565b50505f910152565b5f8151808452610ea1816020860160208601610e68565b601f01601f19169290920160200192915050565b606081525f610ec76060830186610e8a565b60208301949094525060400152919050565b634e487b7160e01b5f52603260045260245ffd5b600181811c90821680610f0157607f821691505b60208210810361056c57634e487b7160e01b5f52602260045260245ffd5b601f821115610314575f81815260208120601f850160051c81016020861015610f455750805b601f850160051c820191505b81811015610f6457828155600101610f51565b505050505050565b815167ffffffffffffffff811115610f8657610f86610cdd565b610f9a81610f948454610eed565b84610f1f565b602080601f831160018114610fcd575f8415610fb65750858301515b5f19600386901b1c1916600185901b178555610f64565b5f85815260208120601f198616915b82811015610ffb57888601518255948401946001909101908401610fdc565b508582101561101857878501515f19600388901b60f8161c191681555b5050505050600190811b01905550565b604081525f61103a6040830185610e8a565b90508260208301529392505050565b7f416363657373436f6e74726f6c3a206163636f756e742000000000000000000081525f8351611080816017850160208801610e68565b7001034b99036b4b9b9b4b733903937b6329607d1b60179184019182015283516110b1816028840160208801610e68565b01602801949350505050565b602081525f61079e6020830184610e8a565b634e487b7160e01b5f52601160045260245ffd5b80820281158282048414176102ea576102ea6110cf565b808201808211156102ea576102ea6110cf565b5f8161111b5761111b6110cf565b505f190190565b818103818111156102ea576102ea6110cf565b634e487b7160e01b5f52603160045260245ffdfea264697066735822122046b0a30a01922b8c1deaf6cda4780c809177a2e96b7c95d42b5379bb559ee74164736f6c63430008150033a26469706673582212200a3393e165667ee8702cb903c876e10ceef798d524202a7ec408b2f61061c5e364736f6c63430008150033",
	"linkReferences": {},
	"deployedLinkReferences": {}
}